:020000040000FA
:060000000A128A110E280D
:10000800FE00030EF4000408F5000A08F6000A12C0
:100018008A11E92E0A128A1111280A128A11CC278C
:100028000A128A11F800F70183010A128A11952F22
:100038000D3083120313A100FB30A000A00B22286F
:10004800A10B2228831203130C1E2B282C282E28E0
:10005800513099000D3083120313A100FB30A0002A
:10006800A00B3428A10B3428831203130C1E3D283F
:100078003E284028753099000D3083120313A100E3
:10008800FB30A000A00B4628A10B462883120313BF
:100098000C1E4F2850285228653099000D308312C5
:1000A8000313A100FB30A000A00B5828A10B58286F
:1000B800831203130C1E61286228642820309900DB
:1000C8000D3083120313A100FB30A000A00B6A2897
:1000D800A10B6A28831203130C1E73287428762830
:1000E800613099000D3083120313A100FB30A0008A
:1000F800A00B7C28A10B7C28831203130C1E8528D7
:1001080086288828633099000D3083120313A100D4
:10011800FB30A000A00B8E28A10B8E28831203139E
:100128000C1E972898289A28633099000D3083125E
:100138000313A100FB30A000A00BA028A10BA0284E
:10014800831203130C1EA928AA28AC286930990029
:100158000D3083120313A100FB30A000A00BB228BE
:10016800A10BB228831203130C1EBB28BC28BE287F
:100178006F3099000D3083120313A100FB30A000EB
:10018800A00BC428A10BC428831203130C1ECD286E
:10019800CE28D0286E3099000C1ED328D428D62813
:1001A800203099000D3083120313A100FB30A0000A
:1001B800A00BDC28A10BDC28831203130C1EE528F6
:1001C800E628E828643099000D3083120313A10053
:1001D800FB30A000A00BEE28A10BEE28831203131E
:1001E8000C1EF728F828FA28653099000D3083127C
:1001F8000313A100FB30A000A00B0029A10B0029CC
:10020800831203130C1E09290A290C29733099003B
:100218000D3083120313A100FB30A000A00B12299C
:10022800A10B1229831203130C1E1B291C291E293A
:10023800653099000D3083120313A100FB30A00034
:10024800A00B2429A10B2429831203130C1E2D298A
:100258002E293029613099000D3083120313A10033
:10026800FB30A000A00B3629A10B362983120313FB
:100278000C1E3F2940294229203099000D30831255
:100288000313A100FB30A000A00B4829A10B4829AB
:10029800831203130C1E51295229542965309900E1
:1002A8000D3083120313A100FB30A000A00B5A29C4
:1002B800A10B5A29831203130C1E6329642966298A
:1002C8006A3099000D3083120313A100FB30A0009F
:1002D800A00B6C29A10B6C29831203130C1E752922
:1002E80076297829653099000D3083120313A1000F
:1002F800FB30A000A00B7E29A10B7E2983120313DB
:100308000C1E872988298A29633099000D308312A9
:100318000313A100FB30A000A00B9029A10B90298A
:10032800831203130C1E99299A299C297530990068
:100338000D3083120313A100FB30A000A00BA229EB
:10034800A10BA229831203130C1EAB29AC29AE29D9
:10035800743099000D3083120313A100FB30A00004
:10036800A00BB429A10BB429831203130C1EBD29B9
:10037800BE29C029613099000D3083120313A100F2
:10038800FB30A000A00BC629A10BC62983120313BA
:100398000C1ECF29D029D229723099000C1ED529DC
:1003A800D629D8293F3099000D3083120313A100B4
:1003B800FB30A000A00BDE29A10BDE29831203135A
:1003C8000C1EE729E829EA290D3099000D3083121F
:1003D8000313A100FB30A000A00BF029A10BF0290A
:1003E800831203130C1EF929FA29FC2928309900D5
:1003F8000D3083120313A100FB30A000A00B022ACA
:10040800A10B022A831203130C1E0B2A0C2A0E2A94
:10041800313099000D3083120313A100FB30A00086
:10042800A00B142AA10B142A831203130C1E1D2AD5
:100438001E2A202A293099000D3083120313A100A7
:10044800FB30A000A00B262AA10B262A8312031337
:100458000C1E2F2A302A322A203099000D308312A0
:100468000313A100FB30A000A00B382AA10B382AE7
:10047800831203130C1E412A422A442A443099004D
:100488000D3083120313A100FB30A000A00B4A2AF1
:10049800A10B4A2A831203130C1E532A542A562AE4
:1004A800653099000D3083120313A100FB30A000C2
:1004B800A00B5C2AA10B5C2A831203130C1E652A6D
:1004C800662A682A733099000D3083120313A1003D
:1004D800FB30A000A00B6E2AA10B6E2A8312031317
:1004E8000C1E772A782A7A2A703099000D308312E8
:1004F8000313A100FB30A000A00B802AA10B802AC7
:10050800831203130C1E892A8A2A8C2A6C309900BC
:100518000D3083120313A100FB30A000A00B922A18
:10052800A10B922A831203130C1E9B2A9C2A9E2A33
:10053800653099000D3083120313A100FB30A00031
:10054800A00BA42AA10BA42A831203130C1EAD2A04
:10055800AE2AB02A673099000D3083120313A10028
:10056800FB30A000A00BB62AA10BB62A83120313F6
:100578000C1EBF2AC02AC22A613099000D3083128E
:100588000313A100FB30A000A00BC82AA10BC82AA6
:10059800831203130C1ED12AD22AD42A723099004E
:1005A8000D3083120313A100FB30A000A00BDA2A40
:1005B800A10BDA2A831203130C1EE32AE42AE62A83
:1005C800203099000D3083120313A100FB30A000E6
:1005D800A00BEC2AA10BEC2A831203130C1EF52A9C
:1005E800F62AF82A633099000D3083120313A1000C
:1005F800FB30A000A00BFE2AA10BFE2A83120313D6
:100608000C1E072B082B0A2B613099000D30831222
:100618000313A100FB30A000A00B102BA10B102B83
:10062800831203130C1E192B1A2B1C2B64309900F0
:100638000D3083120313A100FB30A000A00B222B66
:10064800A10B222B831203130C1E2B2B2C2B2E2BCE
:10065800653099000D3083120313A100FB30A00010
:10066800A00B342BA10B342B831203130C1E3D2B30
:100678003E2B402B6E3099000D3083120313A100DE
:10068800FB30A000A00B462BA10B462B83120313B3
:100698000C1E4F2B502B522B613099000D308312BA
:1006A8000313A100FB30A000A00B582BA10B582B63
:1006B800831203130C1E612B622B642B20309900CC
:1006C8000D3083120313A100FB30A000A00B6A2B8E
:1006D800A10B6A2B831203130C1E732B742B762B1E
:1006E800643099000D3083120313A100FB30A00081
:1006F800A00B7C2BA10B7C2B831203130C1E852BC8
:10070800862B882B653099000D3083120313A100C6
:10071800FB30A000A00B8E2BA10B8E2B8312031392
:100728000C1E972B982B9A2B203099000D30831292
:100738000313A100FB30A000A00BA02BA10BA02B42
:10074800831203130C1EA92BAA2BAC2B6330990020
:100758000D3083120313A100FB30A000A00BB22BB5
:10076800A10BB22B831203130C1EBB2BBC2BBE2B6D
:10077800613099000D3083120313A100FB30A000F3
:10078800A00BC42BA10BC42B831203130C1ECD2B5F
:10079800CE2BD02B723099000D3083120313A10099
:1007A800FB30A000A00BD62BA10BD62B8312031372
:1007B8000C1EDF2BE02BE22B613099000D308312E9
:1007C8000313A100FB30A000A00BE82BA10BE82B22
:1007D800831203130C1EF12BF22BF42B63309900B8
:1007E8000D3083120313A100FB30A000A00BFA2BDD
:1007F800A10BFA2B831203130C1E032C042C062CBA
:10080800743099000D3083120313A100FB30A0004F
:10081800A00B0C2CA10B0C2C831203130C1E152CF3
:10082800162C182C653099000D3083120313A10083
:10083800FB30A000A00B1E2CA10B1E2C831203134F
:100848000C1E272C282C2A2C723099000D3083126C
:100858000313A100FB30A000A00B302CA10B302CFF
:10086800831203130C1E392C3A2C3C2C653099004A
:100878000D3083120313A100FB30A000A00B422C03
:10088800A10B422C831203130C1E4B2C4C2C4E2C08
:10089800733099000D3083120313A100FB30A000C0
:1008A800A00B542CA10B542C831203130C1E5D2C8B
:1008B8005E2C602C0D3099000D3083120313A100BB
:1008C800FB30A000A00B662CA10B662C831203132F
:1008D8000C1E6F2C702C722C283099000D3083124E
:1008E8000313A100FB30A000A00B782CA10B782CDF
:1008F800831203130C1E812C822C842C3230990015
:100908000D3083120313A100FB30A000A00B8A2C2A
:10091800A10B8A2C831203130C1E932C942C962C57
:10092800293099000D3083120313A100FB30A00079
:10093800A00B9C2CA10B9C2C831203130C1EA52C22
:10094800A62CA82C203099000D3083120313A10087
:10095800FB30A000A00BAE2CA10BAE2C831203130E
:100968000C1EB72CB82CBA2C433099000D308312CA
:100978000313A100FB30A000A00BC02CA10BC02CBE
:10098800831203130C1EC92CCA2CCC2C613099007D
:100998000D3083120313A100FB30A000A00BD22C52
:1009A800A10BD22C831203130C1EDB2CDC2CDE2CA7
:1009B8006D3099000D3083120313A100FB30A000A5
:1009C800A00BE42CA10BE42C831203130C1EED2CBA
:1009D800EE2CF02C623099000D3083120313A10025
:1009E800FB30A000A00BF62CA10BF62C83120313EE
:1009F8000C1EFF2C002D022D693099000D3083123A
:100A08000313A100FB30A000A00B082DA10B082D9B
:100A1800831203130C1E112D122D142D6130990011
:100A28000D3083120313A100FB30A000A00B1A2D78
:100A3800A10B1A2D831203130C1E232D242D262DF2
:100A4800723099000D3083120313A100FB30A0000F
:100A5800A00B2C2DA10B2C2D831203130C1E352D4E
:100A6800362D382D203099000D3083120313A10044
:100A7800FB30A000A00B3E2DA10B3E2D83120313CB
:100A88000C1E472D482D4A2D503099000D308312E9
:100A98000313A100FB30A000A00B502DA10B502D7B
:100AA800831203130C1E592D5A2D5C2D4F309900BB
:100AB8000D3083120313A100FB30A000A00B622DA0
:100AC800A10B622D831203130C1E6B2D6C2D6E2D42
:100AD800523099000D3083120313A100FB30A0009F
:100AE800A00B742DA10B742D831203130C1E7D2DE6
:100AF8007E2D802D543099000D3083120313A100F0
:100B0800FB30A000A00B862DA10B862D83120313AA
:100B18000C1E8F2D902D922D413099000D3083128F
:100B28000313A100FB30A000A00B982DA10B982D5A
:100B3800831203130C1EA12DA22DA42D0D30990094
:100B48000D3083120313A100FB30A000A00BAA2DC7
:100B5800A10BAA2D831203130C1EB32DB42DB62D91
:100B6800283099000D3083120313A100FB30A00038
:100B7800A00BBC2DA10BBC2D831203130C1EC52D7D
:100B8800C62DC82D333099000D3083120313A100F0
:100B9800FB30A000A00BCE2DA10BCE2D831203138A
:100BA8000C1ED72DD82DDA2D293099000D3083123F
:100BB8000313A100FB30A000A00BE02DA10BE02D3A
:100BC800831203130C1EE92DEA2DEC2D2030990019
:100BD8000D3083120313A100FB30A000A00BF22DEF
:100BE800A10BF22D831203130C1EFB2DFC2DFE2DE1
:100BF800433099000D3083120313A100FB30A0008D
:100C0800A00B042EA10B042E831203130C1E0D2E11
:100C18000E2E102E613099000D3083120313A1009F
:100C2800FB30A000A00B162EA10B162E8312031367
:100C38000C1E1F2E202E222E6D3099000D3083128F
:100C48000313A100FB30A000A00B282EA10B282E17
:100C5800831203130C1E312E322E342E623099006B
:100C68000D3083120313A100FB30A000A00B3A2E15
:100C7800A10B3A2E831203130C1E432E442E462E2C
:100C8800693099000D3083120313A100FB30A000D6
:100C9800A00B4C2EA10B4C2E831203130C1E552EA9
:100CA800562E582E613099000D3083120313A1007F
:100CB800FB30A000A00B5E2EA10B5E2E8312031347
:100CC8000C1E672E682E6A2E723099000D30831222
:100CD8000313A100FB30A000A00B702EA10B702EF7
:100CE800831203130C1E792E7A2E7C2E2030990045
:100CF8000D3083120313A100FB30A000A00B822E3D
:100D0800A10B822E831203130C1E8B2E8C2E8E2E7B
:100D1800503099000D3083120313A100FB30A0005E
:100D2800A00B942EA10B942E831203130C1E9D2E40
:100D38009E2EA02E4F3099000D3083120313A10070
:100D4800FB30A000A00BA62EA10BA62E8312031326
:100D58000C1EAF2EB02EB22E523099000D308312D9
:100D68000313A100FB30A000A00BB82EA10BB82ED6
:100D7800831203130C1EC12EC22EC42E54309900A8
:100D88000D3083120313A100FB30A000A00BCA2E64
:100D9800A10BCA2E831203130C1ED32ED42ED62ECB
:100DA800423099000D3083120313A100FB30A000DC
:100DB800A00BDC2EA10BDC2E831203130C1EE52ED8
:100DC800E62EE82E0D3099000800831203138C1EBE
:100DD800EE2EEF2E8C2F792F0A128A153E200A123A
:100DE8008A11831203130C1EFA2EFB2EFD2E0D30D2
:100DF80099000A128A1593210A128A118C2F0A1651
:100E08008A1156260A128A11831203138C1E0D2F7B
:100E18000E2F142F1A088500FF30F2007208F70011
:100E280077080319182F192F082F8230F300DD30A7
:100E3800F200F20B1D2FF30B1D2F222F8312031329
:100E48000C1E272F282F2A2F0D3099008230F300EF
:100E5800DD30F200F20B2E2FF30B2E2F332F8312DF
:100E680003130C1E382F392F3B2F0D3099000A120F
:100E78008A1593210A128A11F7018C2F0A168A11F2
:100E880056260A128A11831203138C1E4C2F4D2FDB
:100E9800532F1A088600FF30F2007208F70077080F
:100EA8000319572F582F472F8230F300DD30F200F7
:100EB800F20B5C2FF30B5C2F612F831203130C1EB4
:100EC800662F672F692F0D3099008230F300DD30CF
:100ED800F200F20B6D2FF30B6D2F722F8312031399
:100EE8000C1E772F782F3B2F392F1A08F200F301A9
:100EF8007308003A0319812F8C2F7208313A0319AD
:100F0800F02E033A0319032F013A0319422F8C2FAD
:100F180076088A0075088400740E8300FE0E7E0E23
:100F28000900831603130F178F120F120F1483165D
:100F3800031788018901831603138501860183122B
:100F480003138501860183160313181218158316D7
:100F58000317871519308316031399009A01831212
:100F68000313981718131816831603139816831269
:100F780003138C16831603138C160B178B170A1280
:100F88008A111C200A128A11C82F0A128A110E28E7
:020F98004634DD
:10107C000D30F100FB30F000F00B4228F10B422850
:10108C004728831203130C1E4C284D284F280D3073
:10109C0099000D30F100FB30F000F00B5328F10BF0
:1010AC0053285828831203130C1E5D285E286028D1
:1010BC00483099000D30F100FB30F000F00B642843
:1010CC00F10B64286928831203130C1E6E286F28F9
:1010DC0071284F3099000D30F100FB30F000F00B0F
:1010EC007528F10B75287A28831203130C1E7F28A0
:1010FC00802882284C3099000D30F100FB30F00034
:10110C00F00B8628F10B86288B28831203130C1EF8
:10111C00902891289328413099000D30F100FB3034
:10112C00F000F00B9728F10B97289C2883120313DF
:10113C000C1EA128A228A428203099000D30F10003
:10114C00FB30F000F00BA828F10BA828AD28831277
:10115C0003130C1EB228B328B528423099000D3069
:10116C00F100FB30F000F00BB928F10BB928BE28C8
:10117C00831203130C1EC328C428C62855309900AB
:10118C000D30F100FB30F000F00BCA28F10BCA282F
:10119C00CF28831203130C1ED428D528D72845300A
:1011AC0099000D30F100FB30F000F00BDB28F10B57
:1011BC00DB28E028831203130C1EE528E628E82818
:1011CC004E3099000D30F100FB30F000F00BEC28A4
:1011DC00F10BEC28F128831203130C1EF628F728C8
:1011EC00F928413099000D30F100FB30F000F00B84
:1011FC00FD28F10BFD280229831203130C1E07296D
:10120C0008290A29533099000D30F100FB30F00009
:10121C00F00B0E29F10B0E291329831203130C1E4C
:10122C00182919291B29203099000D30F100FB30A9
:10123C00F000F00B1F29F10B1F2924298312031333
:10124C000C1E29292A292C29543099000D30F10023
:10125C00FB30F000F00B3029F10B302935298312CB
:10126C0003130C1E3A293B293D29413099000D30BE
:10127C00F100FB30F000F00B4129F10B412946291C
:10128C00831203130C1E4B294C294E295230990002
:10129C000D30F100FB30F000F00B5229F10B52290C
:1012AC005729831203130C1E5C295D295F294430D6
:1012BC0099000D30F100FB30F000F00B6329F10BBD
:1012CC0063296829831203130C1E6D296E2970295A
:1012DC00453099000D30F100FB30F000F00B742913
:1012EC00F10B74297929831203130C1E7E297F2993
:1012FC008129533099000D30F100FB30F000F00BD8
:10130C008529F10B85298A29831203130C1E8F2939
:10131C00902992290D30990008000D30F100FB3016
:10132C00F000F00B9729F10B97299C2983120313DA
:10133C000C1EA129A229A429513099000D30F100CD
:10134C00FB30F000F00BA829F10BA829AD29831272
:10135C0003130C1EB229B329B529753099000D3031
:10136C00F100FB30F000F00BB929F10BB929BE29C3
:10137C00831203130C1EC329C429C6296530990096
:10138C000D30F100FB30F000F00BCA29F10BCA292B
:10139C00CF29831203130C1ED429D529D729203029
:1013AC0099000D30F100FB30F000F00BDB29F10B54
:1013BC00DB29E029831203130C1EE529E629E82911
:1013CC00613099000D30F100FB30F000F00BEC298E
:1013DC00F10BEC29F129831203130C1EF629F729C2
:1013EC00F929633099000D30F100FB30F000F00B5F
:1013FC00FD29F10BFD29022A831203130C1E072A67
:10140C00082A0A2A633099000D30F100FB30F000F5
:10141C00F00B0E2AF10B0E2A132A831203130C1E47
:10142C00182A192A1B2A693099000D30F100FB305B
:10143C00F000F00B1F2AF10B1F2A242A831203132E
:10144C000C1E292A2A2A2C2A6F3099000D30F10003
:10145C00FB30F000F00B302AF10B302A352A8312C6
:10146C0003130C1E3A2A3B2A3D2A6E3099000C1E9F
:10147C00402A412A432A203099000D30F100FB30DC
:10148C00F000F00B472AF10B472A4C2A8312031366
:10149C000C1E512A522A542A643099000D30F10046
:1014AC00FB30F000F00B582AF10B582A5D2A8312FE
:1014BC0003130C1E622A632A652A653099000D30CD
:1014CC00F100FB30F000F00B692AF10B692A6E2A4F
:1014DC00831203130C1E732A742A762A7330990014
:1014EC000D30F100FB30F000F00B7A2AF10B7A2A68
:1014FC007F2A831203130C1E842A852A872A6530BF
:10150C0099000D30F100FB30F000F00B8B2AF10B41
:10151C008B2A902A831203130C1E952A962A982A3A
:10152C00613099000D30F100FB30F000F00B9C2A7B
:10153C00F10B9C2AA12A831203130C1EA62AA72A9C
:10154C00A92A203099000D30F100FB30F000F00B8F
:10155C00AD2AF10BAD2AB22A831203130C1EB72A43
:10156C00B82ABA2A653099000D30F100FB30F00032
:10157C00F00BBE2AF10BBE2AC32A831203130C1ED6
:10158C00C82AC92ACB2A6A3099000D30F100FB30E9
:10159C00F000F00BCF2AF10BCF2AD42A83120313BD
:1015AC000C1ED92ADA2ADC2A653099000D30F1009C
:1015BC00FB30F000F00BE02AF10BE02AE52A831255
:1015CC0003130C1EEA2AEB2AED2A633099000D3026
:1015DC00F100FB30F000F00BF12AF10BF12AF62AA6
:1015EC00831203130C1EFB2AFC2AFE2A7530990069
:1015FC000D30F100FB30F000F00B022BF10B022B45
:10160C00072B831203130C1E0C2B0D2B0F2B74307A
:10161C0099000D30F100FB30F000F00B132BF10BA7
:10162C00132B182B831203130C1E1D2B1E2B202B7C
:10163C00613099000D30F100FB30F000F00B242BE1
:10164C00F10B242B292B831203130C1E2E2B2F2B67
:10165C00312B723099000C1E342B352B372B3F302D
:10166C0099000D30F100FB30F000F00B3B2BF10B2F
:10167C003B2B402B831203130C1E452B462B482B64
:10168C000D3099000D30F100FB30F000F00B4C2BBD
:10169C00F10B4C2B512B831203130C1E562B572B77
:1016AC00592B283099000D30F100FB30F000F00B75
:1016BC005D2BF10B5D2B622B831203130C1E672B1E
:1016CC00682B6A2B313099000D30F100FB30F000A3
:1016DC00F00B6E2BF10B6E2B732B831203130C1E62
:1016EC00782B792B7B2B293099000D30F100FB30B6
:1016FC00F000F00B7F2BF10B7F2B842B8312031349
:10170C000C1E892B8A2B8C2B203099000D30F1006C
:10171C00FB30F000F00B902BF10B902B952B8312E0
:10172C0003130C1E9A2B9B2B9D2B443099000D30D0
:10173C00F100FB30F000F00BA12BF10BA12BA62B31
:10174C00831203130C1EAB2BAC2BAE2B6530990004
:10175C000D30F100FB30F000F00BB22BF10BB22B83
:10176C00B72B831203130C1EBC2BBD2BBF2B73305A
:10177C0099000D30F100FB30F000F00BC32BF10B96
:10178C00C32BC82B831203130C1ECD2BCE2BD02BAB
:10179C00703099000D30F100FB30F000F00BD42BC1
:1017AC00F10BD42BD92B831203130C1EDE2BDF2B46
:1017BC00E12B6C3099000D30F100FB30F000F00B98
:1017CC00E52BF10BE52BEA2B831203130C1EEF2BED
:1017DC00F02BF22B653099000D30F100FB30F0004E
:1017EC00F00BF62BF10BF62BFB2B831203130C1EB9
:1017FC00002C012C032C673099000D30F100FB30CC
:10180C00F000F00B072CF10B072C0C2C831203139C
:10181C000C1E112C122C142C613099000D30F1007F
:10182C00FB30F000F00B182CF10B182C1D2C831234
:10183C0003130C1E222C232C252C723099000D30F6
:10184C00F100FB30F000F00B292CF10B292C2E2C85
:10185C00831203130C1E332C342C362C203099009D
:10186C000D30F100FB30F000F00B3A2CF10B3A2C60
:10187C003F2C831203130C1E442C452C472C633035
:10188C0099000D30F100FB30F000F00B4B2CF10BFC
:10189C004B2C502C831203130C1E552C562C582CED
:1018AC00613099000D30F100FB30F000F00B5C2C36
:1018BC00F10B5C2C612C831203130C1E662C672C11
:1018CC00692C643099000D30F100FB30F000F00B06
:1018DC006D2CF10B6D2C722C831203130C1E772CB8
:1018EC00782C7A2C653099000D30F100FB30F0002B
:1018FC00F00B7E2CF10B7E2C832C831203130C1E0D
:10190C00882C892C8B2C6E3099000D30F100FB301B
:10191C00F000F00B8F2CF10B8F2C942C83120313F3
:10192C000C1E992C9A2C9C2C613099000D30F100D6
:10193C00FB30F000F00BA02CF10BA02CA52C83128B
:10194C0003130C1EAA2CAB2CAD2C203099000D309F
:10195C00F100FB30F000F00BB12CF10BB12CB62CDC
:10196C00831203130C1EBB2CBC2CBE2C64309900B0
:10197C000D30F100FB30F000F00BC22CF10BC22C3F
:10198C00C72C831203130C1ECC2CCD2CCF2C653002
:10199C0099000D30F100FB30F000F00BD32CF10B63
:1019AC00D32CD82C831203130C1EDD2CDE2CE02C34
:1019BC00203099000D30F100FB30F000F00BE42CDE
:1019CC00F10BE42CE92C831203130C1EEE2CEF2CE0
:1019DC00F12C633099000D30F100FB30F000F00B6E
:1019EC00F52CF10BF52CFA2C831203130C1EFF2C87
:1019FC00002D022D613099000D30F100FB30F0000C
:101A0C00F00B062DF10B062D0B2D831203130C1E60
:101A1C00102D112D132D723099000D30F100FB306B
:101A2C00F000F00B172DF10B172D1C2D8312031347
:101A3C000C1E212D222D242D613099000D30F1002A
:101A4C00FB30F000F00B282DF10B282D2D2D8312DF
:101A5C0003130C1E322D332D352D633099000D30B0
:101A6C00F100FB30F000F00B392DF10B392D3E2D30
:101A7C00831203130C1E432D442D462D74309900F4
:101A8C000D30F100FB30F000F00B4A2DF10B4A2D1C
:101A9C004F2D831203130C1E542D552D572D6530CD
:101AAC0099000D30F100FB30F000F00B5B2DF10BC9
:101ABC005B2D602D831203130C1E652D662D682D76
:101ACC00723099000D30F100FB30F000F00B6C2DF2
:101ADC00F10B6C2D712D831203130C1E762D772DAB
:101AEC00792D653099000D30F100FB30F000F00BD2
:101AFC007D2DF10B7D2D822D831203130C1E872D52
:101B0C00882D8A2D733099000D30F100FB30F000D8
:101B1C00F00B8E2DF10B8E2D932D831203130C1EB7
:101B2C00982D992D9B2D0D3099000D30F100FB3027
:101B3C00F000F00B9F2DF10B9F2DA42D831203139E
:101B4C000C1EA92DAA2DAC2D283099000D30F100BA
:101B5C00FB30F000F00BB02DF10BB02DB52D831236
:101B6C0003130C1EBA2DBB2DBD2D323099000D3038
:101B7C00F100FB30F000F00BC12DF10BC12DC62D87
:101B8C00831203130C1ECB2DCC2DCE2D2930990096
:101B9C000D30F100FB30F000F00BD22DF10BD22DFB
:101BAC00D72D831203130C1EDC2DDD2DDF2D2030E1
:101BBC0099000D30F100FB30F000F00BE32DF10B30
:101BCC00E32DE82D831203130C1EED2DEE2DF02DBD
:101BDC00433099000D30F100FB30F000F00BF42D88
:101BEC00F10BF42DF92D831203130C1EFE2DFF2D7A
:101BFC00012E613099000D30F100FB30F000F00B3C
:101C0C00052EF10B052E0A2E831203130C1E0F2E1C
:101C1C00102E122E6D3099000D30F100FB30F000BB
:101C2C00F00B162EF10B162E1B2E831203130C1E0B
:101C3C00202E212E232E623099000D30F100FB3026
:101C4C00F000F00B272EF10B272E2C2E83120313F2
:101C5C000C1E312E322E342E693099000D30F100CD
:101C6C00FB30F000F00B382EF10B382E3D2E83128A
:101C7C0003130C1E422E432E452E613099000D305D
:101C8C00F100FB30F000F00B492EF10B492E4E2EDB
:101C9C00831203130C1E532E542E562E72309900A1
:101CAC000D30F100FB30F000F00B5A2EF10B5A2ED8
:101CBC005F2E831203130C1E642E652E672E2030AC
:101CCC0099000D30F100FB30F000F00B6B2EF10B96
:101CDC006B2E702E831203130C1E752E762E782EFF
:101CEC00503099000D30F100FB30F000F00B7C2EE1
:101CFC00F10B7C2E812E831203130C1E862E872E45
:101D0C00892E4F3099000D30F100FB30F000F00BB4
:101D1C008D2EF10B8D2E922E831203130C1E972EEB
:101D2C00982E9A2E523099000D30F100FB30F000B5
:101D3C00F00B9E2EF10B9E2EA32E831203130C1E62
:101D4C00A82EA92EAB2E543099000D30F100FB308B
:101D5C00F000F00BAF2EF10BAF2EB42E8312031349
:101D6C000C1EB92EBA2EBC2E413099000D30F1004C
:101D7C00FB30F000F00BC02EF10BC02EC52E8312E1
:101D8C0003130C1ECA2ECB2ECD2E0D3099000D3008
:101D9C00F100FB30F000F00BD12EF10BD12ED62E32
:101DAC00831203130C1EDB2EDC2EDE2E2830990042
:101DBC000D30F100FB30F000F00BE22EF10BE22EB7
:101DCC00E72E831203130C1EEC2EED2EEF2E333068
:101DDC0099000D30F100FB30F000F00BF32EF10BFD
:101DEC00F32EF82E831203130C1EFD2EFE2E002F45
:101DFC00293099000D30F100FB30F000F00B042F6E
:101E0C00F10B042F092F831203130C1E0E2F0F2F0F
:101E1C00112F203099000D30F100FB30F000F00B49
:101E2C00152FF10B152F1A2F831203130C1E1F2FB6
:101E3C00202F222F433099000D30F100FB30F000A1
:101E4C00F00B262FF10B262F2B2F831203130C1EB6
:101E5C00302F312F332F613099000D30F100FB30D2
:101E6C00F000F00B372FF10B372F3C2F831203139D
:101E7C000C1E412F422F442F6D3099000D30F10074
:101E8C00FB30F000F00B482FF10B482F4D2F831235
:101E9C0003130C1E522F532F552F623099000D3007
:101EAC00F100FB30F000F00B592FF10B592F5E2F86
:101EBC00831203130C1E632F642F662F6930990055
:101ECC000D30F100FB30F000F00B6A2FF10B6A2F94
:101EDC006F2F831203130C1E742F752F772F613005
:101EEC0099000D30F100FB30F000F00B7B2FF10B63
:101EFC007B2F802F831203130C1E852F862F882F88
:101F0C00723099000D30F100FB30F000F00B8C2F8B
:101F1C00F10B8C2F912F831203130C1E962F972FDE
:101F2C00992F203099000D30F100FB30F000F00BB0
:101F3C009D2FF10B9D2FA22F831203130C1EA72F85
:101F4C00A82FAA2F503099000D30F100FB30F00073
:101F5C00F00BAE2FF10BAE2FB32F831203130C1E0D
:101F6C00B82FB92FBB2F4F3099000D30F100FB303B
:101F7C00F000F00BBF2FF10BBF2FC42F83120313F4
:101F8C000C1EC92FCA2FCC2F523099000D30F100E6
:101F9C00FB30F000F00BD02FF10BD02FD52F83128C
:101FAC0003130C1EDA2FDB2FDD2F543099000D306C
:101FBC00F100FB30F000F00BE12FF10BE12FE62FDD
:101FCC00831203130C1EEB2FEC2FEE2F42309900D3
:101FDC000D30F100FB30F000F00BF22FF10BF22F73
:101FEC00F72F831203130C1EFC2FFD2FFF2F0D3028
:041FFC009900080040
:102CAC000D30F100FB30F000F00B5A2EF10B5A2EC8
:102CBC005F2E831203130C1E642E652E672E0D30AF
:102CCC0099000D30F100FB30F000F00B6B2EF10B86
:102CDC006B2E702E831203130C1E752E762E782EEF
:102CEC00493099000D30F100FB30F000F00B7C2ED8
:102CFC00F10B7C2E812E831203130C1E862E872E35
:102D0C00892E6E3099000D30F100FB30F000F00B85
:102D1C008D2EF10B8D2E922E831203130C1E972EDB
:102D2C00982E9A2E673099000D30F100FB30F00090
:102D3C00F00B9E2EF10B9E2EA32E831203130C1E52
:102D4C00A82EA92EAB2E723099000D30F100FB305D
:102D5C00F000F00BAF2EF10BAF2EB42E8312031339
:102D6C000C1EB92EBA2EBC2E653099000D30F10018
:102D7C00FB30F000F00BC02EF10BC02EC52E8312D1
:102D8C0003130C1ECA2ECB2ECD2E733099000D3092
:102D9C00F100FB30F000F00BD12EF10BD12ED62E22
:102DAC00831203130C1EDB2EDC2EDE2E65309900F5
:102DBC000D30F100FB30F000F00BE22EF10BE22EA7
:102DCC00E72E831203130C1EEC2EED2EEF2E20306B
:102DDC0099000D30F100FB30F000F00BF32EF10BED
:102DEC00F32EF82E831203130C1EFD2EFE2E002F35
:102DFC00653099000D30F100FB30F000F00B042F22
:102E0C00F10B042F092F831203130C1E0E2F0F2FFF
:102E1C00112F6C3099000D30F100FB30F000F00BED
:102E2C00152FF10B152F1A2F831203130C1E1F2FA6
:102E3C00202F222F203099000D30F100FB30F000B4
:102E4C00F00B262FF10B262F2B2F831203130C1EA6
:102E5C00302F312F332F6E3099000D30F100FB30B5
:102E6C00F000F00B372FF10B372F3C2F831203138D
:102E7C000C1E412F422F442F753099000D30F1005C
:102E8C00FB30F000F00B482FF10B482F4D2F831225
:102E9C0003130C1E522F532F552F653099000D30F4
:102EAC00F100FB30F000F00B592FF10B592F5E2F76
:102EBC00831203130C1E632F642F662F7630990038
:102ECC000D30F100FB30F000F00B6A2FF10B6A2F84
:102EDC006F2F831203130C1E742F752F772F6F30E7
:102EEC0099000D30F100FB30F000F00B7B2FF10B53
:102EFC007B2F802F831203130C1E852F862F882F78
:102F0C00203099000D30F100FB30F000F00B8C2FCD
:102F1C00F10B8C2F912F831203130C1E962F972FCE
:102F2C00992F763099000D30F100FB30F000F00B4A
:102F3C009D2FF10B9D2FA22F831203130C1EA72F75
:102F4C00A82FAA2F613099000D30F100FB30F00052
:102F5C00F00BAE2FF10BAE2FB32F831203130C1EFD
:102F6C00B82FB92FBB2F6C3099000D30F100FB300E
:102F7C00F000F00BBF2FF10BBF2FC42F83120313E4
:102F8C000C1EC92FCA2FCC2F6F3099000D30F100B9
:102F9C00FB30F000F00BD02FF10BD02FD52F83127C
:102FAC0003130C1EDA2FDB2FDD2F723099000D303E
:102FBC00F100FB30F000F00BE12FF10BE12FE62FCD
:102FCC00831203130C1EEB2FEC2FEE2F3A309900CB
:102FDC000D30F100FB30F000F00BF22FF10BF22F63
:102FEC00F72F831203130C1EFC2FFD2FFF2F203005
:042FFC009900080030
:04400E00C430FF3F7C
:00000001FF
